{
  "hash": "00000000000000ac03320e1cab17dfc7d9f64e5ab8b4550d74c7c9a1210aa23a",
  "confirmations": 2,
  "strippedsize": 2267,
  "size": 2267,
  "weight": 9068,
  "height": 1444071,
  "version": 536870912,
  "versionHex": "20000000",
  "merkleroot": "f520ceb022a1434c233a51218353691bace4c479a7c4dbbb5294d53d233bb401",
  "tx": [
    {
      "txid": "672ca7763a379820982ffe1e3f9701aa104617fff4f5e2cbc0fc065981b3469e",
      "hash": "672ca7763a379820982ffe1e3f9701aa104617fff4f5e2cbc0fc065981b3469e",
      "version": 536870912,
      "size": 150,
      "vsize": 150,
      "weight": 600,
      "locktime": 0,
      "vin": [
        {
          "coinbase": "03e7081603de8917083000001850d415000d2f436f696e69756d536572762f",
          "sequence": 0
        }
      ],
      "vout": [
        {
          "value": 0.77423585,
          "n": 0,
          "scriptPubKey": {
            "asm": "OP_DUP OP_HASH160 5c26b80e5da02fe9ad0bb9d341140aa1d95e640a OP_EQUALVERIFY OP_CHECKSIG",
            "hex": "76a9145c26b80e5da02fe9ad0bb9d341140aa1d95e640a88ac",
            "reqSigs": 1,
            "type": "pubkeyhash",
            "addresses": [
              "movCqwgQ88R8m1WwKFcTVscrXF2mQK2KN4"
            ]
          }
        },
        {
          "value": 0.00782056,
          "n": 1,
          "scriptPubKey": {
            "asm": "OP_DUP OP_HASH160 ca47f1ccb629a2346716fb07c780d2d156391c52 OP_EQUALVERIFY OP_CHECKSIG",
            "hex": "76a914ca47f1ccb629a2346716fb07c780d2d156391c5288ac",
            "reqSigs": 1,
            "type": "pubkeyhash",
            "addresses": [
              "myxWybbhUkGzGF7yaf2QVNx3hh3HWTya5t"
            ]
          }
        }
      ],
      "hex": "00000020010000000000000000000000000000000000000000000000000000000000000000ffffffff1f03e7081603de8917083000001850d415000d2f436f696e69756d536572762f0000000002e1639d04000000001976a9145c26b80e5da02fe9ad0bb9d341140aa1d95e640a88ace8ee0b00000000001976a914ca47f1ccb629a2346716fb07c780d2d156391c5288ac00000000"
    },
    {
      "txid": "3f99c1804f083a8cbb52a01fd5b8838e2b05ccac95a4c18694446936cf290acc",
      "hash": "3f99c1804f083a8cbb52a01fd5b8838e2b05ccac95a4c18694446936cf290acc",
      "version": 1,
      "size": 224,
      "vsize": 224,
      "weight": 896,
      "locktime": 0,
      "vin": [
        {
          "txid": "e452917e44e3d9856cc5dfac7f8c6829ec0017d39cd26882ed7029164f9e56f3",
          "vout": 1,
          "scriptSig": {
            "asm": "30450221008897dcddd9281aada6436af346e325ffccce29687e5e44cbdef998fecfe3d1f202200b5d1588e2f3ec44cf017210efc31f46776c433a94bec678b81056ac1760802e[ALL] 02f00115382c58a901329450aa444e07e102b492fc749924dd5683abf1f322919e",
            "hex": "4830450221008897dcddd9281aada6436af346e325ffccce29687e5e44cbdef998fecfe3d1f202200b5d1588e2f3ec44cf017210efc31f46776c433a94bec678b81056ac1760802e012102f00115382c58a901329450aa444e07e102b492fc749924dd5683abf1f322919e"
          },
          "sequence": 4294967295
        }
      ],
      "vout": [
        {
          "value": 0.10000000,
          "n": 0,
          "scriptPubKey": {
            "asm": "OP_HASH160 a4910e76aa7729b33aafeac1b2a653616e542adf OP_EQUAL",
            "hex": "a914a4910e76aa7729b33aafeac1b2a653616e542adf87",
            "reqSigs": 1,
            "type": "scripthash",
            "addresses": [
              "2N8FNaSqhVeqBKF1m2X2HVXGYN5wg4irNFh"
            ]
          }
        },
        {
          "value": 0.62967273,
          "n": 1,
          "scriptPubKey": {
            "asm": "OP_DUP OP_HASH160 c8decd38800efee7b85551e90a472d4a058b352c OP_EQUALVERIFY OP_CHECKSIG",
            "hex": "76a914c8decd38800efee7b85551e90a472d4a058b352c88ac",
            "reqSigs": 1,
            "type": "pubkeyhash",
            "addresses": [
              "myq4Lx2yM1Mf5agF1HJEXXWFgFxLeUN5Cx"
            ]
          }
        }
      ],
      "hex": "0100000001f3569e4f162970ed8268d29cd31700ec29688c7facdfc56c85d9e3447e9152e4010000006b4830450221008897dcddd9281aada6436af346e325ffccce29687e5e44cbdef998fecfe3d1f202200b5d1588e2f3ec44cf017210efc31f46776c433a94bec678b81056ac1760802e012102f00115382c58a901329450aa444e07e102b492fc749924dd5683abf1f322919effffffff02809698000000000017a914a4910e76aa7729b33aafeac1b2a653616e542adf87e9cdc003000000001976a914c8decd38800efee7b85551e90a472d4a058b352c88ac00000000"
    },
    {
      "txid": "a124561692d44b1c0c7f02ecb70dd9af61790f263451c84176f65c1f3b8458e1",
      "hash": "a124561692d44b1c0c7f02ecb70dd9af61790f263451c84176f65c1f3b8458e1",
      "version": 1,
      "size": 223,
      "vsize": 223,
      "weight": 892,
      "locktime": 0,
      "vin": [
        {
          "txid": "b2b0956b05b6f3306c2e46806a09c957fe4b8010a7c819f82ddb63fa62d8c679",
          "vout": 1,
          "scriptSig": {
            "asm": "30440220217f1d83a1f99498895c4d62ae31b452e57b6702657f2d11af539c4b60f5e675022016f99802093084d8efd746a3f65885e6d036e0c41b4d434746949b19c7dec26c[ALL] 02dc7b2f4c665075f241691e402bbf85891b8ae5eb57a8220adf2c776571d69872",
            "hex": "4730440220217f1d83a1f99498895c4d62ae31b452e57b6702657f2d11af539c4b60f5e675022016f99802093084d8efd746a3f65885e6d036e0c41b4d434746949b19c7dec26c012102dc7b2f4c665075f241691e402bbf85891b8ae5eb57a8220adf2c776571d69872"
          },
          "sequence": 4294967295
        }
      ],
      "vout": [
        {
          "value": 39.04331985,
          "n": 0,
          "scriptPubKey": {
            "asm": "OP_DUP OP_HASH160 48f9fedcd8c65fd920d7f59ec4e164a2559e8d1e OP_EQUALVERIFY OP_CHECKSIG",
            "hex": "76a91448f9fedcd8c65fd920d7f59ec4e164a2559e8d1e88ac",
            "reqSigs": 1,
            "type": "pubkeyhash",
            "addresses": [
              "mnApRrvrSh3GiSkXGNnJCjznpEsJgoyQxo"
            ]
          }
        },
        {
          "value": 0.00021988,
          "n": 1,
          "scriptPubKey": {
            "asm": "OP_HASH160 888f65d44ffd29024289f447593daac03533ecd1 OP_EQUAL",
            "hex": "a914888f65d44ffd29024289f447593daac03533ecd187",
            "reqSigs": 1,
            "type": "scripthash",
            "addresses": [
              "2N5hHfpnUs5Py4rZXB7YnDpPzQzAP3TEiLZ"
            ]
          }
        }
      ],
      "hex": "010000000179c6d862fa63db2df819c8a710804bfe57c9096a80462e6c30f3b6056b95b0b2010000006a4730440220217f1d83a1f99498895c4d62ae31b452e57b6702657f2d11af539c4b60f5e675022016f99802093084d8efd746a3f65885e6d036e0c41b4d434746949b19c7dec26c012102dc7b2f4c665075f241691e402bbf85891b8ae5eb57a8220adf2c776571d69872ffffffff02d160b7e8000000001976a91448f9fedcd8c65fd920d7f59ec4e164a2559e8d1e88ace45500000000000017a914888f65d44ffd29024289f447593daac03533ecd18700000000"
    },
    {
      "txid": "950ccb37d9f9c48a919b2ec9d94f365894f2a41043febc30fc766d61449908e2",
      "hash": "950ccb37d9f9c48a919b2ec9d94f365894f2a41043febc30fc766d61449908e2",
      "version": 1,
      "size": 225,
      "vsize": 225,
      "weight": 900,
      "locktime": 0,
      "vin": [
        {
          "txid": "a63b2a79866ee4332c9935c38d1631cd18e9a59f47b82d4a62ec8fcd4cf61711",
          "vout": 0,
          "scriptSig": {
            "asm": "3044022023d77268084c9323e3869780bd97f3d8b71528ab7c331f2468c798dc89c549a5022060be6d75d7bd064a9ffbc279aa50a442ae4d1e5630155962342920203c0eca74[ALL] 0261b4769ccd86f6299746e03597f1605369eacd91f418ebbd5d52e8e18e7fdf1c",
            "hex": "473044022023d77268084c9323e3869780bd97f3d8b71528ab7c331f2468c798dc89c549a5022060be6d75d7bd064a9ffbc279aa50a442ae4d1e5630155962342920203c0eca7401210261b4769ccd86f6299746e03597f1605369eacd91f418ebbd5d52e8e18e7fdf1c"
          },
          "sequence": 4294967295
        }
      ],
      "vout": [
        {
          "value": 0.11278549,
          "n": 0,
          "scriptPubKey": {
            "asm": "OP_DUP OP_HASH160 557f3571ac617ea752d45e068ce8b4e9dd3cbc0f OP_EQUALVERIFY OP_CHECKSIG",
            "hex": "76a914557f3571ac617ea752d45e068ce8b4e9dd3cbc0f88ac",
            "reqSigs": 1,
            "type": "pubkeyhash",
            "addresses": [
              "moK27yme6EpHCQYvsjqV3xmykejQ9ZGkun"
            ]
          }
        },
        {
          "value": 0.00024600,
          "n": 1,
          "scriptPubKey": {
            "asm": "OP_DUP OP_HASH160 e25592af23aa55c3b8f17e40295d2888058b339b OP_EQUALVERIFY OP_CHECKSIG",
            "hex": "76a914e25592af23aa55c3b8f17e40295d2888058b339b88ac",
            "reqSigs": 1,
            "type": "pubkeyhash",
            "addresses": [
              "n29hX85mRkXh4MtW2H1vuYQuirYp8obELE"
            ]
          }
        }
      ],
      "hex": "01000000011117f64ccd8fec624a2db8479fa5e918cd31168dc335992c33e46e86792a3ba6000000006a473044022023d77268084c9323e3869780bd97f3d8b71528ab7c331f2468c798dc89c549a5022060be6d75d7bd064a9ffbc279aa50a442ae4d1e5630155962342920203c0eca7401210261b4769ccd86f6299746e03597f1605369eacd91f418ebbd5d52e8e18e7fdf1cffffffff02d518ac00000000001976a914557f3571ac617ea752d45e068ce8b4e9dd3cbc0f88ac18600000000000001976a914e25592af23aa55c3b8f17e40295d2888058b339b88ac00000000"
    },
    {
      "txid": "a4c071938d3140a937e9f89dc9cca87efc31075df646a1dca3a960d146acf4cf",
      "hash": "a4c071938d3140a937e9f89dc9cca87efc31075df646a1dca3a960d146acf4cf",
      "version": 1,
      "size": 225,
      "vsize": 225,
      "weight": 900,
      "locktime": 0,
      "vin": [
        {
          "txid": "81f55ba6df01c2fad2e5c85683294e682afa73821d43624bd2b37bc35f3b413f",
          "vout": 1,
          "scriptSig": {
            "asm": "3044022055a37373915de28ee993f9447c66bcf2e9436e261c8d3c43265b48e44d6ecbac022056025b1204c93e884f86369b69b7b032ece4d431c7ca33c200678bdefb3649ed[ALL] 0363f736d1cf82589a53f596f0112be8ccd3d9f997724bf2edb1ccab6b8bd8ec91",
            "hex": "473044022055a37373915de28ee993f9447c66bcf2e9436e261c8d3c43265b48e44d6ecbac022056025b1204c93e884f86369b69b7b032ece4d431c7ca33c200678bdefb3649ed01210363f736d1cf82589a53f596f0112be8ccd3d9f997724bf2edb1ccab6b8bd8ec91"
          },
          "sequence": 4294967295
        }
      ],
      "vout": [
        {
          "value": 0.00244185,
          "n": 0,
          "scriptPubKey": {
            "asm": "OP_DUP OP_HASH160 96d69186196d65d00c7911b15bc3247a65d272ac OP_EQUALVERIFY OP_CHECKSIG",
            "hex": "76a91496d69186196d65d00c7911b15bc3247a65d272ac88ac",
            "reqSigs": 1,
            "type": "pubkeyhash",
            "addresses": [
              "muGWhJhiQDjYnsF1oMJph3J2C2gAAdGYpH"
            ]
          }
        },
        {
          "value": 0.10503560,
          "n": 1,
          "scriptPubKey": {
            "asm": "OP_DUP OP_HASH160 0fcd248fdc0eaab3099fbb4ec16e1f56ea759f2d OP_EQUALVERIFY OP_CHECKSIG",
            "hex": "76a9140fcd248fdc0eaab3099fbb4ec16e1f56ea759f2d88ac",
            "reqSigs": 1,
            "type": "pubkeyhash",
            "addresses": [
              "mgxWBWDPwSomPj71ynbeMWH2AWArZknnpT"
            ]
          }
        }
      ],
      "hex": "01000000013f413b5fc37bb3d24b62431d8273fa2a684e298356c8e5d2fac201dfa65bf581010000006a473044022055a37373915de28ee993f9447c66bcf2e9436e261c8d3c43265b48e44d6ecbac022056025b1204c93e884f86369b69b7b032ece4d431c7ca33c200678bdefb3649ed01210363f736d1cf82589a53f596f0112be8ccd3d9f997724bf2edb1ccab6b8bd8ec91ffffffff02d9b90300000000001976a91496d69186196d65d00c7911b15bc3247a65d272ac88ac8845a000000000001976a9140fcd248fdc0eaab3099fbb4ec16e1f56ea759f2d88ac00000000"
    },
    {
      "txid": "dae6cabe191164a898d508ff16c7a283691c62d92453f691d1bea49e37353f73",
      "hash": "dae6cabe191164a898d508ff16c7a283691c62d92453f691d1bea49e37353f73",
      "version": 1,
      "size": 256,
      "vsize": 256,
      "weight": 1024,
      "locktime": 0,
      "vin": [
        {
          "txid": "0d44522caf1f724b8e692bd2d454f8e7c3806204094964d16fe95d71a501e2c3",
          "vout": 0,
          "scriptSig": {
            "asm": "304402207b2eb4e631fc558889a82987352387a3a415443163b47f0cda97eaf54b3adea9022020a9c7d78121427079e25b3868d345a466ea046ab1c5a9c12b8f36ffb02d94cb[ALL] 02dcc373845b1d83ecf1c002bc50bf4511d0c05acbe101fcf0018d9a2df434ccf5",
            "hex": "47304402207b2eb4e631fc558889a82987352387a3a415443163b47f0cda97eaf54b3adea9022020a9c7d78121427079e25b3868d345a466ea046ab1c5a9c12b8f36ffb02d94cb012102dcc373845b1d83ecf1c002bc50bf4511d0c05acbe101fcf0018d9a2df434ccf5"
          },
          "sequence": 4294967295
        }
      ],
      "vout": [
        {
          "value": 0.14454690,
          "n": 0,
          "scriptPubKey": {
            "asm": "OP_DUP OP_HASH160 fdd49ac4b219a55ec305521cb13063cc7cce14c9 OP_EQUALVERIFY OP_CHECKSIG",
            "hex": "76a914fdd49ac4b219a55ec305521cb13063cc7cce14c988ac",
            "reqSigs": 1,
            "type": "pubkeyhash",
            "addresses": [
              "n4f5wcQGvg1Agoxgr8WSuQpygrNnf57MxN"
            ]
          }
        },
        {
          "value": 0.00000000,
          "n": 1,
          "scriptPubKey": {
            "asm": "OP_RETURN 6f6d6e6900000000000000010000000001c9c380",
            "hex": "6a146f6d6e6900000000000000010000000001c9c380",
            "type": "nulldata"
          }
        },
        {
          "value": 0.00000546,
          "n": 2,
          "scriptPubKey": {
            "asm": "OP_DUP OP_HASH160 39be3872d5c2a0a885b85c5fdfed1cbc1cbbb9e5 OP_EQUALVERIFY OP_CHECKSIG",
            "hex": "76a91439be3872d5c2a0a885b85c5fdfed1cbc1cbbb9e588ac",
            "reqSigs": 1,
            "type": "pubkeyhash",
            "addresses": [
              "mknGgjuV2aWtufMuqB3smkY8Lh432tn5HB"
            ]
          }
        }
      ],
      "hex": "0100000001c3e201a5715de96fd1644909046280c3e7f854d4d22b698e4b721faf2c52440d000000006a47304402207b2eb4e631fc558889a82987352387a3a415443163b47f0cda97eaf54b3adea9022020a9c7d78121427079e25b3868d345a466ea046ab1c5a9c12b8f36ffb02d94cb012102dcc373845b1d83ecf1c002bc50bf4511d0c05acbe101fcf0018d9a2df434ccf5ffffffff03a28fdc00000000001976a914fdd49ac4b219a55ec305521cb13063cc7cce14c988ac0000000000000000166a146f6d6e6900000000000000010000000001c9c38022020000000000001976a91439be3872d5c2a0a885b85c5fdfed1cbc1cbbb9e588ac00000000"
    },
    {
      "txid": "6ce9f97306200df48fe2ae8d84f16cbdfeefe82048d33978d663184bc04f88ea",
      "hash": "6ce9f97306200df48fe2ae8d84f16cbdfeefe82048d33978d663184bc04f88ea",
      "version": 2,
      "size": 434,
      "vsize": 434,
      "weight": 1736,
      "locktime": 1444069,
      "vin": [
        {
          "txid": "dacef6b5af9c04fb2ccc7a61f2203f35b1ef0e6f84497bfb42872be7f9e4ea03",
          "vout": 1,
          "scriptSig": {
            "asm": "304402200bf2587cb93d8aa8ed2d4bff7ab8e1de6b6f4275ed4f4983d74b746fd1df0b1502203921526f87e7f5545e1f8426eb96515adc333d96d49d087e3079a522422ec1d7[ALL] 0419a054d89788ee0392a907e2bb231cdf7cfda9123dc3bbc4ea93083fb930163ad8ca81cd0a92129387130726c76049335756ee28d3b7ae5f7379d28225c00601",
            "hex": "47304402200bf2587cb93d8aa8ed2d4bff7ab8e1de6b6f4275ed4f4983d74b746fd1df0b1502203921526f87e7f5545e1f8426eb96515adc333d96d49d087e3079a522422ec1d701410419a054d89788ee0392a907e2bb231cdf7cfda9123dc3bbc4ea93083fb930163ad8ca81cd0a92129387130726c76049335756ee28d3b7ae5f7379d28225c00601"
          },
          "sequence": 4294967294
        },
        {
          "txid": "43f15f4f782a2ef1455a62cd6705022bbcdc8705c9e1cd7f7eed37350bd09516",
          "vout": 1,
          "scriptSig": {
            "asm": "304402206476314b5b8fcd19ae20517653b1bad84481635d0c457973b01605cba7425ea502207126ff363eb070dfedec91bd40f7db90c5bff0807cd5edbf4ed8a0ea0f64f6df[ALL] 0419a054d89788ee0392a907e2bb231cdf7cfda9123dc3bbc4ea93083fb930163ad8ca81cd0a92129387130726c76049335756ee28d3b7ae5f7379d28225c00601",
            "hex": "47304402206476314b5b8fcd19ae20517653b1bad84481635d0c457973b01605cba7425ea502207126ff363eb070dfedec91bd40f7db90c5bff0807cd5edbf4ed8a0ea0f64f6df01410419a054d89788ee0392a907e2bb231cdf7cfda9123dc3bbc4ea93083fb930163ad8ca81cd0a92129387130726c76049335756ee28d3b7ae5f7379d28225c00601"
          },
          "sequence": 4294967294
        }
      ],
      "vout": [
        {
          "value": 0.01000000,
          "n": 0,
          "scriptPubKey": {
            "asm": "OP_DUP OP_HASH160 1c862535dc83f07df99423994b6cb21c9a8949cb OP_EQUALVERIFY OP_CHECKSIG",
            "hex": "76a9141c862535dc83f07df99423994b6cb21c9a8949cb88ac",
            "reqSigs": 1,
            "type": "pubkeyhash",
            "addresses": [
              "mi7mv1QX2AAnQus4xHAjxPPtMKMLfSziR9"
            ]
          }
        },
        {
          "value": 0.00999564,
          "n": 1,
          "scriptPubKey": {
            "asm": "OP_HASH160 a02e11c9a393b722af6398300ee1a5d6169830a2 OP_EQUAL",
            "hex": "a914a02e11c9a393b722af6398300ee1a5d6169830a287",
            "reqSigs": 1,
            "type": "scripthash",
            "addresses": [
              "2N7rBHwWV9b3Na7Lq36MteEYihzjmBgCeJz"
            ]
          }
        }
      ],
      "hex": "020000000203eae4f9e72b8742fb7b49846f0eefb1353f20f2617acc2cfb049cafb5f6ceda010000008a47304402200bf2587cb93d8aa8ed2d4bff7ab8e1de6b6f4275ed4f4983d74b746fd1df0b1502203921526f87e7f5545e1f8426eb96515adc333d96d49d087e3079a522422ec1d701410419a054d89788ee0392a907e2bb231cdf7cfda9123dc3bbc4ea93083fb930163ad8ca81cd0a92129387130726c76049335756ee28d3b7ae5f7379d28225c00601feffffff1695d00b3537ed7e7fcde1c90587dcbc2b020567cd625a45f12e2a784f5ff143010000008a47304402206476314b5b8fcd19ae20517653b1bad84481635d0c457973b01605cba7425ea502207126ff363eb070dfedec91bd40f7db90c5bff0807cd5edbf4ed8a0ea0f64f6df01410419a054d89788ee0392a907e2bb231cdf7cfda9123dc3bbc4ea93083fb930163ad8ca81cd0a92129387130726c76049335756ee28d3b7ae5f7379d28225c00601feffffff0240420f00000000001976a9141c862535dc83f07df99423994b6cb21c9a8949cb88ac8c400f000000000017a914a02e11c9a393b722af6398300ee1a5d6169830a287e5081600"
    },
    {
      "txid": "f2f35481df678f3f716ca430e836893c8181aaca522dd476ced4cf7198a373f1",
      "hash": "f2f35481df678f3f716ca430e836893c8181aaca522dd476ced4cf7198a373f1",
      "version": 2,
      "size": 223,
      "vsize": 223,
      "weight": 892,
      "locktime": 1444070,
      "vin": [
        {
          "txid": "99b4891e0ca96c0604f172e64e78bbc97f92c60cba6225b33ca710c04635b139",
          "vout": 1,
          "scriptSig": {
            "asm": "3044022062107518c3f0ae3bbb768ac8e392d4d297bfd9f17ddf931e3b1c4c193953311202204c9d54eb7a8b289c3ba7a32a6c12b6970219aa97328589c46d950869c7f25eaa[ALL] 03c3379e1a1ec2e8274b5fbd69f192a02dc6d6a01b787ed206e31faf0784992122",
            "hex": "473044022062107518c3f0ae3bbb768ac8e392d4d297bfd9f17ddf931e3b1c4c193953311202204c9d54eb7a8b289c3ba7a32a6c12b6970219aa97328589c46d950869c7f25eaa012103c3379e1a1ec2e8274b5fbd69f192a02dc6d6a01b787ed206e31faf0784992122"
          },
          "sequence": 4294967294
        }
      ],
      "vout": [
        {
          "value": 0.01237090,
          "n": 0,
          "scriptPubKey": {
            "asm": "OP_HASH160 57c07b63878d6dcdc7ad9812732542755c214aa5 OP_EQUAL",
            "hex": "a91457c07b63878d6dcdc7ad9812732542755c214aa587",
            "reqSigs": 1,
            "type": "scripthash",
            "addresses": [
              "2N1FDMrcLAL5QC1mrdjXHkhUbywA89GQa5E"
            ]
          }
        },
        {
          "value": 0.18762686,
          "n": 1,
          "scriptPubKey": {
            "asm": "OP_DUP OP_HASH160 88b6eb27d4bfc73f1d2bf0373d9d48827a6c3895 OP_EQUALVERIFY OP_CHECKSIG",
            "hex": "76a91488b6eb27d4bfc73f1d2bf0373d9d48827a6c389588ac",
            "reqSigs": 1,
            "type": "pubkeyhash",
            "addresses": [
              "msyqKYmHvMtWmhQ5hL7upKbZQKqwdzp3Gr"
            ]
          }
        }
      ],
      "hex": "020000000139b13546c010a73cb32562ba0cc6927fc9bb784ee672f104066ca90c1e89b499010000006a473044022062107518c3f0ae3bbb768ac8e392d4d297bfd9f17ddf931e3b1c4c193953311202204c9d54eb7a8b289c3ba7a32a6c12b6970219aa97328589c46d950869c7f25eaa012103c3379e1a1ec2e8274b5fbd69f192a02dc6d6a01b787ed206e31faf0784992122feffffff0262e012000000000017a91457c07b63878d6dcdc7ad9812732542755c214aa587be4b1e01000000001976a91488b6eb27d4bfc73f1d2bf0373d9d48827a6c389588ace6081600"
    },
    {
      "txid": "ddcf90000422e105f9f30b6a44ecbde1f5789bc891c4ee265654b227608b6fd1",
      "hash": "ddcf90000422e105f9f30b6a44ecbde1f5789bc891c4ee265654b227608b6fd1",
      "version": 1,
      "size": 226,
      "vsize": 226,
      "weight": 904,
      "locktime": 0,
      "vin": [
        {
          "txid": "3b2223ff3fc6501d7386f1ec9aeac86bf78b9e98b1567499f5508bf4f3606206",
          "vout": 1,
          "scriptSig": {
            "asm": "30450221008b686be74983169659efb205aa12cce9a77b8e666bd689410b891f9e008de50502204b1fb61167731f525f276ab95078d9d64716d1708e80c3dc0224759adbd0fbb5[ALL] 03a4f4f9bf5359a77c1c92dfdaee6cdfaa3792afd09bd5c37caa462696e5fe0675",
            "hex": "4830450221008b686be74983169659efb205aa12cce9a77b8e666bd689410b891f9e008de50502204b1fb61167731f525f276ab95078d9d64716d1708e80c3dc0224759adbd0fbb5012103a4f4f9bf5359a77c1c92dfdaee6cdfaa3792afd09bd5c37caa462696e5fe0675"
          },
          "sequence": 4294967295
        }
      ],
      "vout": [
        {
          "value": 0.00100000,
          "n": 0,
          "scriptPubKey": {
            "asm": "OP_DUP OP_HASH160 2d77dc27875735a113603e5c31c3013399274790 OP_EQUALVERIFY OP_CHECKSIG",
            "hex": "76a9142d77dc27875735a113603e5c31c301339927479088ac",
            "reqSigs": 1,
            "type": "pubkeyhash",
            "addresses": [
              "mjfNHhmQbAAWcrTUU56UAvBJ1jZcJHwsRc"
            ]
          }
        },
        {
          "value": 0.09803320,
          "n": 1,
          "scriptPubKey": {
            "asm": "OP_DUP OP_HASH160 aa7ad9c9a47fd588fe662e5161fbc1f657652373 OP_EQUALVERIFY OP_CHECKSIG",
            "hex": "76a914aa7ad9c9a47fd588fe662e5161fbc1f65765237388ac",
            "reqSigs": 1,
            "type": "pubkeyhash",
            "addresses": [
              "mw4NLV1epg5wsrGS8cHcoUaBfAtFtZTCBL"
            ]
          }
        }
      ],
      "hex": "0100000001066260f3f48b50f5997456b1989e8bf76bc8ea9aecf186731d50c63fff23223b010000006b4830450221008b686be74983169659efb205aa12cce9a77b8e666bd689410b891f9e008de50502204b1fb61167731f525f276ab95078d9d64716d1708e80c3dc0224759adbd0fbb5012103a4f4f9bf5359a77c1c92dfdaee6cdfaa3792afd09bd5c37caa462696e5fe0675ffffffff02a0860100000000001976a9142d77dc27875735a113603e5c31c301339927479088ac38969500000000001976a914aa7ad9c9a47fd588fe662e5161fbc1f65765237388ac00000000"
    }
  ],
  "time": 1542622341,
  "mediantime": 1542618445,
  "nonce": 1881404999,
  "bits": "1a015b3d",
  "difficulty": 12368745.01434309,
  "chainwork": "0000000000000000000000000000000000000000000000d3470b483bc1e015cd",
  "nTx": 9,
  "previousblockhash": "00000000000000c22152c2b64c7635ba402ce4cc1fc26d1bf872dabbe411a2cf",
  "nextblockhash": "0000000000000004b7363f6fc1e30a03eef0ff0e9e2f821e65bc3f70e54ce476"
}
